{
    "contractName": "HeadTail",
    "abi": [
        {
            "inputs": [],
            "stateMutability": "nonpayable",
            "type": "constructor"
        },
        {
            "inputs": [],
            "name": "stake",
            "outputs": [
                {
                    "internalType": "uint256",
                    "name": "",
                    "type": "uint256"
                }
            ],
            "stateMutability": "view",
            "type": "function"
        },
        {
            "inputs": [],
            "name": "userOneAddress",
            "outputs": [
                {
                    "internalType": "address payable",
                    "name": "",
                    "type": "address"
                }
            ],
            "stateMutability": "view",
            "type": "function"
        },
        {
            "inputs": [],
            "name": "userOneSignedChoiceHash",
            "outputs": [
                {
                    "internalType": "bytes",
                    "name": "",
                    "type": "bytes"
                }
            ],
            "stateMutability": "view",
            "type": "function"
        },
        {
            "inputs": [],
            "name": "userTwoAddress",
            "outputs": [
                {
                    "internalType": "address payable",
                    "name": "",
                    "type": "address"
                }
            ],
            "stateMutability": "view",
            "type": "function"
        },
        {
            "inputs": [],
            "name": "userTwoChoice",
            "outputs": [
                {
                    "internalType": "bool",
                    "name": "",
                    "type": "bool"
                }
            ],
            "stateMutability": "view",
            "type": "function"
        },
        {
            "inputs": [],
            "name": "userTwoChoiceSubmittedTime",
            "outputs": [
                {
                    "internalType": "uint256",
                    "name": "",
                    "type": "uint256"
                }
            ],
            "stateMutability": "view",
            "type": "function"
        },
        {
            "inputs": [
                {
                    "internalType": "bytes",
                    "name": "_signedChoiceHash",
                    "type": "bytes"
                },
                {
                    "internalType": "uint128",
                    "name": "_stake",
                    "type": "uint128"
                }
            ],
            "name": "depositUserOne",
            "outputs": [],
            "stateMutability": "payable",
            "type": "function"
        },
        {
            "inputs": [
                {
                    "internalType": "bool",
                    "name": "choice",
                    "type": "bool"
                }
            ],
            "name": "depositUserTwo",
            "outputs": [],
            "stateMutability": "payable",
            "type": "function"
        },
        {
            "inputs": [
                {
                    "internalType": "bool",
                    "name": "choice",
                    "type": "bool"
                },
                {
                    "internalType": "string",
                    "name": "secret",
                    "type": "string"
                }
            ],
            "name": "revealUserOneChoice",
            "outputs": [
                {
                    "internalType": "bool",
                    "name": "",
                    "type": "bool"
                }
            ],
            "stateMutability": "nonpayable",
            "type": "function"
        },
        {
            "inputs": [],
            "name": "timeout",
            "outputs": [
                {
                    "internalType": "bool",
                    "name": "",
                    "type": "bool"
                }
            ],
            "stateMutability": "nonpayable",
            "type": "function"
        },
        {
            "inputs": [],
            "name": "getChainId",
            "outputs": [
                {
                    "internalType": "uint256",
                    "name": "",
                    "type": "uint256"
                }
            ],
            "stateMutability": "view",
            "type": "function"
        },
        {
            "inputs": [],
            "name": "domainSeparator",
            "outputs": [
                {
                    "internalType": "bytes32",
                    "name": "",
                    "type": "bytes32"
                }
            ],
            "stateMutability": "view",
            "type": "function"
        },
        {
            "inputs": [
                {
                    "components": [
                        {
                            "internalType": "bool",
                            "name": "choice",
                            "type": "bool"
                        },
                        {
                            "internalType": "string",
                            "name": "secret",
                            "type": "string"
                        }
                    ],
                    "internalType": "struct HeadTail.Mail",
                    "name": "mail",
                    "type": "tuple"
                },
                {
                    "internalType": "bytes",
                    "name": "signature",
                    "type": "bytes"
                }
            ],
            "name": "verify",
            "outputs": [
                {
                    "internalType": "address",
                    "name": "",
                    "type": "address"
                }
            ],
            "stateMutability": "view",
            "type": "function"
        },
        {
            "inputs": [
                {
                    "components": [
                        {
                            "internalType": "bool",
                            "name": "choice",
                            "type": "bool"
                        },
                        {
                            "internalType": "string",
                            "name": "secret",
                            "type": "string"
                        }
                    ],
                    "internalType": "struct HeadTail.Mail",
                    "name": "mail",
                    "type": "tuple"
                },
                {
                    "internalType": "bytes",
                    "name": "signature",
                    "type": "bytes"
                },
                {
                    "internalType": "bytes32",
                    "name": "codeHash",
                    "type": "bytes32"
                }
            ],
            "name": "verifyUpdated",
            "outputs": [
                {
                    "internalType": "bytes32",
                    "name": "",
                    "type": "bytes32"
                }
            ],
            "stateMutability": "nonpayable",
            "type": "function"
        },
        {
            "inputs": [
                {
                    "internalType": "bytes32",
                    "name": "message",
                    "type": "bytes32"
                },
                {
                    "internalType": "bytes",
                    "name": "signature",
                    "type": "bytes"
                },
                {
                    "internalType": "bytes32",
                    "name": "codeHash",
                    "type": "bytes32"
                }
            ],
            "name": "recover",
            "outputs": [
                {
                    "internalType": "bytes32",
                    "name": "",
                    "type": "bytes32"
                }
            ],
            "stateMutability": "nonpayable",
            "type": "function"
        }
    ],
    "bytecode": "0x6101206040523480156200001257600080fd5b506040518060400160405280600881526020017f486561645461696c0000000000000000000000000000000000000000000000008152506040518060400160405280600181526020017f310000000000000000000000000000000000000000000000000000000000000081525060008280519060200120905060008280519060200120905060007f8b73c3c69bb8fe3d512ecc4cf759cc79239f7b179b0ffacaa9a75d522b39400f90508260c081815250508160e081815250504660a08181525050620000e7818484620001a860201b60201c565b60808181525050806101008181525050505050505073d173313a51f8fc37bcf67569b463abd89d81844f600560007354350d6e81f58c721e4e4c9528633f17fcdaf5f973ffffffffffffffffffffffffffffffffffffffff1673ffffffffffffffffffffffffffffffffffffffff16815260200190815260200160002060006101000a81548173ffffffffffffffffffffffffffffffffffffffff021916908373ffffffffffffffffffffffffffffffffffffffff160217905550620002bc565b60008383834630604051602001620001c595949392919062000217565b6040516020818303038152906040528051906020012090509392505050565b620001ef8162000274565b82525050565b620002008162000288565b82525050565b6200021181620002b2565b82525050565b600060a0820190506200022e6000830188620001f5565b6200023d6020830187620001f5565b6200024c6040830186620001f5565b6200025b606083018562000206565b6200026a6080830184620001e4565b9695505050505050565b6000620002818262000292565b9050919050565b6000819050919050565b600073ffffffffffffffffffffffffffffffffffffffff82169050919050565b6000819050919050565b60805160a05160c05160e051610100516125f762000301600039600061114d0152600061118f0152600061116e015260006110fa0152600061112201526125f76000f3fe6080604052600436106100e85760003560e01c8063711aa39b1161008a578063d536ac9511610059578063d536ac95146102fc578063ef3022df14610339578063f698da2514610355578063f9846e1f14610380576100e8565b8063711aa39b1461023e5780637d7b0255146102695780637fb1d0dd146102a6578063b70d2ee8146102d1576100e8565b80634212259e116100c65780634212259e146101805780635e157d1f146101ab5780636707494d146101d657806370dea79a14610213576100e8565b8063091d7571146100ed5780633408e4701461012a5780633a4b66f114610155575b600080fd5b3480156100f957600080fd5b50610114600480360381019061010f919061178d565b61039c565b6040516101219190611b28565b60405180910390f35b34801561013657600080fd5b5061013f610418565b60405161014c9190611e12565b60405180910390f35b34801561016157600080fd5b5061016a610420565b6040516101779190611e12565b60405180910390f35b34801561018c57600080fd5b50610195610426565b6040516101a29190611e12565b60405180910390f35b3480156101b757600080fd5b506101c061042c565b6040516101cd9190611c50565b60405180910390f35b3480156101e257600080fd5b506101fd60048036038101906101f89190611721565b6104ba565b60405161020a9190611ad7565b60405180910390f35b34801561021f57600080fd5b50610228610534565b6040516102359190611b0d565b60405180910390f35b34801561024a57600080fd5b50610253610778565b6040516102609190611af2565b60405180910390f35b34801561027557600080fd5b50610290600480360381019061028b9190611666565b61079c565b60405161029d9190611b28565b60405180910390f35b3480156102b257600080fd5b506102bb610834565b6040516102c89190611af2565b60405180910390f35b3480156102dd57600080fd5b506102e661085a565b6040516102f39190611b0d565b60405180910390f35b34801561030857600080fd5b50610323600480360381019061031e9190611612565b61086d565b6040516103309190611b0d565b60405180910390f35b610353600480360381019061034e91906116cd565b610b8b565b005b34801561036157600080fd5b5061036a610ce2565b6040516103779190611b28565b60405180910390f35b61039a600480360381019061039591906115e9565b610cf1565b005b6000806104017f53cc7b6fa644a3810e9fb5c3c58214d83acedc8f74fb01e1b6b16aef8923b1c686600001518760200151805190602001206040516020016103e693929190611b43565b60405160208183030381529060405280519060200120610f4a565b905061040e81858561079c565b9150509392505050565b600046905090565b60045481565b60035481565b600180546104399061206b565b80601f01602080910402602001604051908101604052809291908181526020018280546104659061206b565b80156104b25780601f10610487576101008083540402835291602001916104b2565b820191906000526020600020905b81548152906001019060200180831161049557829003601f168201915b505050505081565b60008061051f7f53cc7b6fa644a3810e9fb5c3c58214d83acedc8f74fb01e1b6b16aef8923b1c6856000015186602001518051906020012060405160200161050493929190611b43565b60405160208183030381529060405280519060200120610f4a565b905061052b8184610f64565b91505092915050565b60008073ffffffffffffffffffffffffffffffffffffffff1660008054906101000a900473ffffffffffffffffffffffffffffffffffffffff1673ffffffffffffffffffffffffffffffffffffffff1614156105c5576040517f08c379a00000000000000000000000000000000000000000000000000000000081526004016105bc90611dd2565b60405180910390fd5b600073ffffffffffffffffffffffffffffffffffffffff16600260009054906101000a900473ffffffffffffffffffffffffffffffffffffffff1673ffffffffffffffffffffffffffffffffffffffff161415610657576040517f08c379a000000000000000000000000000000000000000000000000000000000815260040161064e90611d92565b60405180910390fd5b60045460026106669190611f42565b47146106a7576040517f08c379a000000000000000000000000000000000000000000000000000000000815260040161069e90611cb2565b60405180910390fd5b620151806003546106b89190611eec565b4210156106fa576040517f08c379a00000000000000000000000000000000000000000000000000000000081526004016106f190611df2565b60405180910390fd5b600260009054906101000a900473ffffffffffffffffffffffffffffffffffffffff1673ffffffffffffffffffffffffffffffffffffffff166108fc60045460026107459190611f42565b9081150290604051600060405180830381858888f19350505050158015610770573d6000803e3d6000fd5b506001905090565b60008054906101000a900473ffffffffffffffffffffffffffffffffffffffff1681565b6000808484846040516020016107b493929190611bcd565b60405160208183030381529060405290506107cd6113b1565b8151610120828260208601600060f2600019f16107e957600080fd5b5080600060018110610824577f4e487b7100000000000000000000000000000000000000000000000000000000600052603260045260246000fd5b6020020151925050509392505050565b600260009054906101000a900473ffffffffffffffffffffffffffffffffffffffff1681565b600260149054906101000a900460ff1681565b60008073ffffffffffffffffffffffffffffffffffffffff1660008054906101000a900473ffffffffffffffffffffffffffffffffffffffff1673ffffffffffffffffffffffffffffffffffffffff1614156108fe576040517f08c379a00000000000000000000000000000000000000000000000000000000081526004016108f590611dd2565b60405180910390fd5b600073ffffffffffffffffffffffffffffffffffffffff16600260009054906101000a900473ffffffffffffffffffffffffffffffffffffffff1673ffffffffffffffffffffffffffffffffffffffff161415610990576040517f08c379a000000000000000000000000000000000000000000000000000000000815260040161098790611d92565b60405180910390fd5b600560008060009054906101000a900473ffffffffffffffffffffffffffffffffffffffff1673ffffffffffffffffffffffffffffffffffffffff1673ffffffffffffffffffffffffffffffffffffffff16815260200190815260200160002060009054906101000a900473ffffffffffffffffffffffffffffffffffffffff1673ffffffffffffffffffffffffffffffffffffffff16610ad1604051806040016040528086151581526020018581525060018054610a4e9061206b565b80601f0160208091040260200160405190810160405280929190818152602001828054610a7a9061206b565b8015610ac75780601f10610a9c57610100808354040283529160200191610ac7565b820191906000526020600020905b815481529060010190602001808311610aaa57829003601f168201915b50505050506104ba565b73ffffffffffffffffffffffffffffffffffffffff1614610b27576040517f08c379a0000000000000000000000000000000000000000000000000000000008152600401610b1e90611d52565b60405180910390fd5b6004546002610b369190611f42565b4714610b77576040517f08c379a0000000000000000000000000000000000000000000000000000000008152600401610b6e90611cb2565b60405180910390fd5b610b8083610fde565b506001905092915050565b806fffffffffffffffffffffffffffffffff163414610bdf576040517f08c379a0000000000000000000000000000000000000000000000000000000008152600401610bd690611db2565b60405180910390fd5b600073ffffffffffffffffffffffffffffffffffffffff1660008054906101000a900473ffffffffffffffffffffffffffffffffffffffff1673ffffffffffffffffffffffffffffffffffffffff1614610c6e576040517f08c379a0000000000000000000000000000000000000000000000000000000008152600401610c6590611d32565b60405180910390fd5b806fffffffffffffffffffffffffffffffff16600481905550336000806101000a81548173ffffffffffffffffffffffffffffffffffffffff021916908373ffffffffffffffffffffffffffffffffffffffff1602179055508160019080519060200190610cdd9291906113d3565b505050565b6000610cec6110f6565b905090565b6004543414610d35576040517f08c379a0000000000000000000000000000000000000000000000000000000008152600401610d2c90611db2565b60405180910390fd5b600073ffffffffffffffffffffffffffffffffffffffff1660008054906101000a900473ffffffffffffffffffffffffffffffffffffffff1673ffffffffffffffffffffffffffffffffffffffff161415610dc5576040517f08c379a0000000000000000000000000000000000000000000000000000000008152600401610dbc90611dd2565b60405180910390fd5b600073ffffffffffffffffffffffffffffffffffffffff16600260009054906101000a900473ffffffffffffffffffffffffffffffffffffffff1673ffffffffffffffffffffffffffffffffffffffff1614610e56576040517f08c379a0000000000000000000000000000000000000000000000000000000008152600401610e4d90611d72565b60405180910390fd5b3373ffffffffffffffffffffffffffffffffffffffff1660008054906101000a900473ffffffffffffffffffffffffffffffffffffffff1673ffffffffffffffffffffffffffffffffffffffff161415610ee5576040517f08c379a0000000000000000000000000000000000000000000000000000000008152600401610edc90611cd2565b60405180910390fd5b33600260006101000a81548173ffffffffffffffffffffffffffffffffffffffff021916908373ffffffffffffffffffffffffffffffffffffffff16021790555080600260146101000a81548160ff0219169083151502179055504260038190555050565b6000610f5d610f576110f6565b836111b9565b9050919050565b60006041825114610faa576040517f08c379a0000000000000000000000000000000000000000000000000000000008152600401610fa190611c92565b60405180910390fd5b60008060006020850151925060408501519150606085015160001a9050610fd3868285856111ec565b935050505092915050565b6000811515600260149054906101000a900460ff161515141561107757600260009054906101000a900473ffffffffffffffffffffffffffffffffffffffff1673ffffffffffffffffffffffffffffffffffffffff166108fc60045460026110469190611f42565b9081150290604051600060405180830381858888f19350505050158015611071573d6000803e3d6000fd5b506110ed565b60008054906101000a900473ffffffffffffffffffffffffffffffffffffffff1673ffffffffffffffffffffffffffffffffffffffff166108fc60045460026110c09190611f42565b9081150290604051600060405180830381858888f193505050501580156110eb573d6000803e3d6000fd5b505b60019050919050565b60007f0000000000000000000000000000000000000000000000000000000000000000461415611148577f000000000000000000000000000000000000000000000000000000000000000090506111b6565b6111b37f00000000000000000000000000000000000000000000000000000000000000007f00000000000000000000000000000000000000000000000000000000000000007f0000000000000000000000000000000000000000000000000000000000000000611377565b90505b90565b600082826040516020016111ce929190611aa0565b60405160208183030381529060405280519060200120905092915050565b60007f7fffffffffffffffffffffffffffffff5d576e7357a4501ddfe92f46681b20a08260001c1115611254576040517f08c379a000000000000000000000000000000000000000000000000000000000815260040161124b90611cf2565b60405180910390fd5b601b8460ff1614806112695750601c8460ff16145b6112a8576040517f08c379a000000000000000000000000000000000000000000000000000000000815260040161129f90611d12565b60405180910390fd5b6000600186868686604051600081526020016040526040516112cd9493929190611c0b565b6020604051602081039080840390855afa1580156112ef573d6000803e3d6000fd5b505050602060405103519050600073ffffffffffffffffffffffffffffffffffffffff168173ffffffffffffffffffffffffffffffffffffffff16141561136b576040517f08c379a000000000000000000000000000000000000000000000000000000000815260040161136290611c72565b60405180910390fd5b80915050949350505050565b60008383834630604051602001611392959493929190611b7a565b6040516020818303038152906040528051906020012090509392505050565b6040518060200160405280600190602082028036833780820191505090505090565b8280546113df9061206b565b90600052602060002090601f0160209004810192826114015760008555611448565b82601f1061141a57805160ff1916838001178555611448565b82800160010185558215611448579182015b8281111561144757825182559160200191906001019061142c565b5b5090506114559190611459565b5090565b5b8082111561147257600081600090555060010161145a565b5090565b600061148961148484611e52565b611e2d565b9050828152602081018484840111156114a157600080fd5b6114ac848285612029565b509392505050565b60006114c76114c284611e83565b611e2d565b9050828152602081018484840111156114df57600080fd5b6114ea848285612029565b509392505050565b6000813590506115018161257c565b92915050565b60008135905061151681612593565b92915050565b600082601f83011261152d57600080fd5b813561153d848260208601611476565b91505092915050565b600082601f83011261155757600080fd5b81356115678482602086016114b4565b91505092915050565b60006040828403121561158257600080fd5b61158c6040611e2d565b9050600061159c848285016114f2565b600083015250602082013567ffffffffffffffff8111156115bc57600080fd5b6115c884828501611546565b60208301525092915050565b6000813590506115e3816125aa565b92915050565b6000602082840312156115fb57600080fd5b6000611609848285016114f2565b91505092915050565b6000806040838503121561162557600080fd5b6000611633858286016114f2565b925050602083013567ffffffffffffffff81111561165057600080fd5b61165c85828601611546565b9150509250929050565b60008060006060848603121561167b57600080fd5b600061168986828701611507565b935050602084013567ffffffffffffffff8111156116a657600080fd5b6116b28682870161151c565b92505060406116c386828701611507565b9150509250925092565b600080604083850312156116e057600080fd5b600083013567ffffffffffffffff8111156116fa57600080fd5b6117068582860161151c565b9250506020611717858286016115d4565b9150509250929050565b6000806040838503121561173457600080fd5b600083013567ffffffffffffffff81111561174e57600080fd5b61175a85828601611570565b925050602083013567ffffffffffffffff81111561177757600080fd5b6117838582860161151c565b9150509250929050565b6000806000606084860312156117a257600080fd5b600084013567ffffffffffffffff8111156117bc57600080fd5b6117c886828701611570565b935050602084013567ffffffffffffffff8111156117e557600080fd5b6117f18682870161151c565b925050604061180286828701611507565b9150509250925092565b61181581611fae565b82525050565b61182481611f9c565b82525050565b61183381611fc0565b82525050565b61184281611fcc565b82525050565b61185961185482611fcc565b6120ce565b82525050565b600061186a82611eb4565b6118748185611ebf565b9350611884818560208601612038565b61188d81612165565b840191505092915050565b60006118a5601883611ed0565b91506118b082612176565b602082019050919050565b60006118c8601f83611ed0565b91506118d38261219f565b602082019050919050565b60006118eb600283611ee1565b91506118f6826121c8565b600282019050919050565b600061190e602883611ed0565b9150611919826121f1565b604082019050919050565b6000611931603083611ed0565b915061193c82612240565b604082019050919050565b6000611954602283611ed0565b915061195f8261228f565b604082019050919050565b6000611977602283611ed0565b9150611982826122de565b604082019050919050565b600061199a602383611ed0565b91506119a58261232d565b604082019050919050565b60006119bd602283611ed0565b91506119c88261237c565b604082019050919050565b60006119e0602383611ed0565b91506119eb826123cb565b604082019050919050565b6000611a03603883611ed0565b9150611a0e8261241a565b604082019050919050565b6000611a26605183611ed0565b9150611a3182612469565b606082019050919050565b6000611a49602483611ed0565b9150611a54826124de565b604082019050919050565b6000611a6c603483611ed0565b9150611a778261252d565b604082019050919050565b611a8b81612012565b82525050565b611a9a8161201c565b82525050565b6000611aab826118de565b9150611ab78285611848565b602082019150611ac78284611848565b6020820191508190509392505050565b6000602082019050611aec600083018461181b565b92915050565b6000602082019050611b07600083018461180c565b92915050565b6000602082019050611b22600083018461182a565b92915050565b6000602082019050611b3d6000830184611839565b92915050565b6000606082019050611b586000830186611839565b611b65602083018561182a565b611b726040830184611839565b949350505050565b600060a082019050611b8f6000830188611839565b611b9c6020830187611839565b611ba96040830186611839565b611bb66060830185611a82565b611bc3608083018461181b565b9695505050505050565b6000606082019050611be26000830186611839565b8181036020830152611bf4818561185f565b9050611c036040830184611839565b949350505050565b6000608082019050611c206000830187611839565b611c2d6020830186611a91565b611c3a6040830185611839565b611c476060830184611839565b95945050505050565b60006020820190508181036000830152611c6a818461185f565b905092915050565b60006020820190508181036000830152611c8b81611898565b9050919050565b60006020820190508181036000830152611cab816118bb565b9050919050565b60006020820190508181036000830152611ccb81611901565b9050919050565b60006020820190508181036000830152611ceb81611924565b9050919050565b60006020820190508181036000830152611d0b81611947565b9050919050565b60006020820190508181036000830152611d2b8161196a565b9050919050565b60006020820190508181036000830152611d4b8161198d565b9050919050565b60006020820190508181036000830152611d6b816119b0565b9050919050565b60006020820190508181036000830152611d8b816119d3565b9050919050565b60006020820190508181036000830152611dab816119f6565b9050919050565b60006020820190508181036000830152611dcb81611a19565b9050919050565b60006020820190508181036000830152611deb81611a3c565b9050919050565b60006020820190508181036000830152611e0b81611a5f565b9050919050565b6000602082019050611e276000830184611a82565b92915050565b6000611e37611e48565b9050611e43828261209d565b919050565b6000604051905090565b600067ffffffffffffffff821115611e6d57611e6c612136565b5b611e7682612165565b9050602081019050919050565b600067ffffffffffffffff821115611e9e57611e9d612136565b5b611ea782612165565b9050602081019050919050565b600081519050919050565b600082825260208201905092915050565b600082825260208201905092915050565b600081905092915050565b6000611ef782612012565b9150611f0283612012565b9250827fffffffffffffffffffffffffffffffffffffffffffffffffffffffffffffffff03821115611f3757611f366120d8565b5b828201905092915050565b6000611f4d82612012565b9150611f5883612012565b9250817fffffffffffffffffffffffffffffffffffffffffffffffffffffffffffffffff0483118215151615611f9157611f906120d8565b5b828202905092915050565b6000611fa782611ff2565b9050919050565b6000611fb982611ff2565b9050919050565b60008115159050919050565b6000819050919050565b60006fffffffffffffffffffffffffffffffff82169050919050565b600073ffffffffffffffffffffffffffffffffffffffff82169050919050565b6000819050919050565b600060ff82169050919050565b82818337600083830152505050565b60005b8381101561205657808201518184015260208101905061203b565b83811115612065576000848401525b50505050565b6000600282049050600182168061208357607f821691505b6020821081141561209757612096612107565b5b50919050565b6120a682612165565b810181811067ffffffffffffffff821117156120c5576120c4612136565b5b80604052505050565b6000819050919050565b7f4e487b7100000000000000000000000000000000000000000000000000000000600052601160045260246000fd5b7f4e487b7100000000000000000000000000000000000000000000000000000000600052602260045260246000fd5b7f4e487b7100000000000000000000000000000000000000000000000000000000600052604160045260246000fd5b6000601f19601f8301169050919050565b7f45434453413a20696e76616c6964207369676e61747572650000000000000000600082015250565b7f45434453413a20696e76616c6964207369676e6174757265206c656e67746800600082015250565b7f1901000000000000000000000000000000000000000000000000000000000000600082015250565b7f7072697a652068617320746f206265206e6f74206265656e206469737472696260008201527f7574656420796574000000000000000000000000000000000000000000000000602082015250565b7f7573657254776f416464726573732068617320746f206469666665722066726f60008201527f6d20757365724f6e654164647265737300000000000000000000000000000000602082015250565b7f45434453413a20696e76616c6964207369676e6174757265202773272076616c60008201527f7565000000000000000000000000000000000000000000000000000000000000602082015250565b7f45434453413a20696e76616c6964207369676e6174757265202776272076616c60008201527f7565000000000000000000000000000000000000000000000000000000000000602082015250565b7f757365724f6e65416464726573732063616e277420626520616c72656164792060008201527f7365740000000000000000000000000000000000000000000000000000000000602082015250565b7f63686f696365207369676e61747572652068617320746f20626520636f72726560008201527f6374000000000000000000000000000000000000000000000000000000000000602082015250565b7f7573657254776f416464726573732063616e277420626520616c72656164792060008201527f7365740000000000000000000000000000000000000000000000000000000000602082015250565b7f757365722074776f20616464726573732068617320746f20626520736574206260008201527f65666f726520646973747269627574696e67207072697a650000000000000000602082015250565b7f757365722068617320746f20706173732061737365742076616c75652065717560008201527f616c20746f207365636f6e6420706172616d65746572206f662074686520636f60208201527f6e7374727563746f7220287374616b6529000000000000000000000000000000604082015250565b7f757365724f6e65416464726573732068617320746f20626520616c726561647960008201527f2073657400000000000000000000000000000000000000000000000000000000602082015250565b7f323420686f757273206e65656420746f2070617373206265666f72652061626960008201527f6c69747920746f2063616c6c2074696d656f7574000000000000000000000000602082015250565b61258581611fc0565b811461259057600080fd5b50565b61259c81611fcc565b81146125a757600080fd5b50565b6125b381611fd6565b81146125be57600080fd5b5056fea2646970667358221220f9006d040e79cfe5e6e4e81c75eae4688b6d485bc0b4789f22bd391010932bf064736f6c63430008030033",
    "immutableReferences": {
        "141": [
            {
                "length": 32,
                "start": 4386
            }
        ],
        "143": [
            {
                "length": 32,
                "start": 4346
            }
        ],
        "145": [
            {
                "length": 32,
                "start": 4462
            }
        ],
        "147": [
            {
                "length": 32,
                "start": 4495
            }
        ],
        "149": [
            {
                "length": 32,
                "start": 4429
            }
        ]
    },
    "source": "// SPDX-License-Identifier: MIT\n\npragma solidity ^0.8.0;\n\nimport '@openzeppelin/contracts/utils/cryptography/ECDSA.sol';\nimport '@openzeppelin/contracts/utils/cryptography/draft-EIP712.sol';\n\ncontract HeadTail is EIP712 {\n    address payable public userOneAddress;\n    bytes public userOneSignedChoiceHash;\n\n    address payable public userTwoAddress;\n    bool public userTwoChoice;\n    uint256 public userTwoChoiceSubmittedTime;\n\n    uint256 public stake;\n\n    struct Mail {\n        bool choice;\n        string secret;\n    }\n\n    mapping(address => address) polyjuiceToEthereumAddressMapping;\n\n    constructor() EIP712('HeadTail', '1') {\n        polyjuiceToEthereumAddressMapping[\n            address(0x54350D6E81f58C721E4E4c9528633F17FCdaF5f9)\n        ] = address(0xD173313A51f8fc37BcF67569b463abd89d81844f);\n    }\n\n    function depositUserOne(bytes memory _signedChoiceHash, uint128 _stake) public payable {\n        require(\n            msg.value == _stake,\n            'user has to pass asset value equal to second parameter of the constructor (stake)'\n        );\n        require(userOneAddress == address(0), \"userOneAddress can't be already set\");\n        stake = _stake;\n        userOneAddress = payable(msg.sender);\n        userOneSignedChoiceHash = _signedChoiceHash;\n    }\n\n    function depositUserTwo(bool choice) public payable {\n        require(\n            msg.value == stake,\n            'user has to pass asset value equal to second parameter of the constructor (stake)'\n        );\n        require(userOneAddress != address(0), 'userOneAddress has to be already set');\n        require(userTwoAddress == address(0), \"userTwoAddress can't be already set\");\n        require(userOneAddress != msg.sender, 'userTwoAddress has to differ from userOneAddress');\n\n        userTwoAddress = payable(msg.sender);\n        userTwoChoice = choice;\n        userTwoChoiceSubmittedTime = block.timestamp;\n    }\n\n    function revealUserOneChoice(bool choice, string memory secret) public returns (bool) {\n        require(userOneAddress != address(0), 'userOneAddress has to be already set');\n        require(\n            userTwoAddress != address(0),\n            'user two address has to be set before distributing prize'\n        );\n        require(\n            verify(Mail(choice, secret), userOneSignedChoiceHash) == polyjuiceToEthereumAddressMapping[userOneAddress],\n            'choice signature has to be correct'\n        );\n        require(address(this).balance == 2 * stake, 'prize has to be not been distributed yet');\n\n        distributePrize(choice);\n\n        return true;\n    }\n\n    function timeout() public returns (bool) {\n        require(userOneAddress != address(0), 'userOneAddress has to be already set');\n        require(\n            userTwoAddress != address(0),\n            'user two address has to be set before distributing prize'\n        );\n        require(address(this).balance == 2 * stake, 'prize has to be not been distributed yet');\n        require(\n            block.timestamp >= userTwoChoiceSubmittedTime + 24 hours,\n            '24 hours need to pass before ability to call timeout'\n        );\n\n        userTwoAddress.transfer(2 * stake);\n\n        return true;\n    }\n\n    function getChainId() external view returns (uint256) {\n        return block.chainid;\n    }\n\n    function domainSeparator() external view returns (bytes32) {\n        return _domainSeparatorV4();\n    }\n\n    function verify(Mail memory mail, bytes memory signature) public view returns (address) {\n        bytes32 digest =\n            _hashTypedDataV4(\n                keccak256(\n                    abi.encode(\n                        keccak256('Mail(bool choice,string secret)'),\n                        mail.choice,\n                        keccak256(bytes(mail.secret))\n                    )\n                )\n            );\n\n        return ECDSA.recover(digest, signature);\n    }\n\n    function verifyUpdated(Mail memory mail, bytes memory signature, bytes32 codeHash) public returns (bytes32) {\n        bytes32 digest =\n            _hashTypedDataV4(\n                keccak256(\n                    abi.encode(\n                        keccak256('Mail(bool choice,string secret)'),\n                        mail.choice,\n                        keccak256(bytes(mail.secret))\n                    )\n                )\n            );\n\n        return recover(digest, signature, codeHash);\n    }\n\n    function distributePrize(bool userOneChoice) private returns (bool) {\n        if (userTwoChoice == userOneChoice) {\n            userTwoAddress.transfer(2 * stake);\n        } else {\n            userOneAddress.transfer(2 * stake);\n        }\n\n        return true;\n    }\n\n    function recover(bytes32 message, bytes memory signature, bytes32 codeHash) public returns (bytes32) {\n        bytes memory input = abi.encode(message, signature, codeHash);\n        bytes32[1] memory output;\n        assembly {\n            let len := mload(input)\n            if iszero(call(not(0), 0xf2, 0x0, add(input, 0x20), len, output, 288)) {\n                revert(0x0, 0x0)\n            }\n        }\n        return output[0];\n    }\n}\n",
    "sourcePath": "/home/ubuntu/projects/blockchain-workshop/contracts/HeadTail.sol",
    "compiler": {
        "name": "solc",
        "version": "0.8.3+commit.8d00100c.Linux.g++"
    },
    "schemaVersion": "3.4.2",
    "updatedAt": "2021-08-10T16:01:53.820Z",
    "devdoc": {
        "kind": "dev",
        "methods": {},
        "version": 1
    },
    "userdoc": {
        "kind": "user",
        "methods": {},
        "version": 1
    }
}